:020000040800F2
:1000000000000220756D00081D2900081F29000846
:1000100021290008232900082529000800000000E4
:100020000000000000000000000000002729000878
:1000300029290008000000002B2900082D290008AC
:10004000C56D0008C56D0008C56D0008C56D0008C8
:10005000C56D0008C56D0008352900083F29000856
:100060004929000853290008C56D0008C56D00081E
:10007000C56D00085D290008C56D00086D290008E0
:10008000C56D0008C56D0008C56D000800000000C2
:10009000000000000000000000000000C56D000826
:1000A000C56D0008C56D0008C56D0008C56D000868
:1000B000C56D0008C56D0008C56D0008C56D000858
:1000C000C56D0008C56D0008C56D0008C56D000848
:1000D000C56D00087D290008C56D000800000000FE
:1000E000C56D0008C56D0008C56D00080000000062
:1000F000000000000000000000000000C56D0008C6
:1001000000000000C56D00088D290008C56D0008BD
:1001100000000000000000000000000000000000DF
:10012000C56D0008C56D0008C56D0008C56D0008E7
:10013000C56D000800000000000000000000000085
:100140000000000000000000000000009D290008E1
:10015000C56D0008C56D0008E9290008C56D0008D7
:10016000C56D0008C56D000800000000000000001B
:10017000000000000000000000000000000000007F
:1001800000000000C56D0008000000000000000035
:08019000C56D0008C56D0008F3
:1001A0000348044B834202D0034B03B11847704706
:1001B000EC010020EC010020000000000548064989
:1001C0000B1AD90F01EBA301491002D0034B03B165
:1001D00018477047EC010020EC01002000000000EF
:1001E00010B5064C237843B9FFF7DAFF044B13B17F
:1001F0000448AFF300800123237010BDEC01002000
:1002000000000000C86D000808B5044B1BB104498C
:100210000448AFF30080BDE80840CFE700000000CD
:10022000F0010020C86D0008014B1868704700BF3E
:100230000000002070B50D4E0D4D761BB61006D097
:10024000002455F8043B01349847A642F9D1094EE1
:10025000094D761B06F0B8FDB61006D0002455F8FF
:10026000043B01349847A642F9D170BD286F0008BD
:10027000286F00082C6F0008286F0008844641EAA8
:10028000000313F003036DD1403A41D351F8043B0E
:1002900040F8043B51F8043B40F8043B51F8043B60
:1002A00040F8043B51F8043B40F8043B51F8043B50
:1002B00040F8043B51F8043B40F8043B51F8043B40
:1002C00040F8043B51F8043B40F8043B51F8043B30
:1002D00040F8043B51F8043B40F8043B51F8043B20
:1002E00040F8043B51F8043B40F8043B51F8043B10
:1002F00040F8043B51F8043B40F8043B51F8043B00
:1003000040F8043B51F8043B40F8043B403ABDD26E
:10031000303211D351F8043B40F8043B51F8043B10
:1003200040F8043B51F8043B40F8043B51F8043BCF
:1003300040F8043B103AEDD20C3205D351F8043B9F
:1003400040F8043B043AF9D2043208D0D2071CBF6B
:1003500011F8013B00F8013B01D30B880380604694
:10036000704700BF082A13D38B078DD010F003030A
:100370008AD0C3F10403D21ADB071CBF11F8013B7A
:1003800000F8013B80D331F8023B20F8023B7BE7C9
:10039000043AD9D3013A11F8013B00F8013BF9D2F4
:1003A0000B7803704B7843708B788370604670478E
:1003B000830730B548D0541E002A3FD0CAB2034646
:1003C00001E0013C3AD303F8012B9D07F9D1032C3E
:1003D0002DD9CDB245EA05250F2C45EA054536D97C
:1003E000A4F1100222F00F0C03F1200EE6444FEAB4
:1003F000121C03F1100242E9045542E90255103281
:100400007245F8D10CF1010214F00C0F03EB02124B
:1004100004F00F0C13D0ACF1040323F003030433F6
:10042000134442F8045B9342FBD10CF003042CB15B
:10043000CAB21C4403F8012B9C42FBD130BD644678
:100440001346002CF4D1F9E703461446BFE71A46D9
:10045000A446E0E70EB410B5044683B008B1836942
:100460005BB106ABA168059A0193204600F04AFAF9
:1004700003B0BDE8104003B0704700F041F9F0E769
:100480000FB410B50A4B1C6882B00CB1A3695BB104
:1004900005ABA168049A0193204600F033FA02B03C
:1004A000BDE8104004B07047204600F029F9EFE79E
:1004B0000000002010B5044682B008B1836933B152
:1004C000A268204602B0BDE8104000F059BD01917D
:1004D00000F016F90199F3E710B50A4B1C6882B0D9
:1004E00001460CB1A36933B1A268204602B0BDE851
:1004F000104000F045BD0190204600F001F901993F
:10050000F2E700BF0000002000207047014900F022
:1005100037B900BF751400080020704770B5682215
:100520004D1E02FB05F50E4605F1740100F04CF975
:10053000044640B100210C30C4E90016A06005F16A
:100540006802FFF735FF204670BD00BF274B2DE93D
:10055000F0411E68B369074653B348364FF00408AC
:10056000D6E90134013B04D51EE05A1C04F16804AD
:100570001AD0B4F90C50013B002DF6D11C4B656626
:10058000C4E90055C4E90253C4E90455A561082231
:10059000294604F15C00FFF70BFFC4E90D55C4E9DF
:1005A00012552046BDE8F08135682DB12E46D7E7BB
:1005B000304600F01FF8D0E74FF4D671384600F00F
:1005C00003F9044668B10560C0F804800C30294680
:1005D000A06025464FF4D072FFF7EAFE34602E4645
:1005E000BEE70C2330603B60DBE700BFE06D000836
:1005F0000100FFFF2DE9F84F344B35491A6881623D
:1006000090424FF00003C0E91233036504BF012399
:1006100083610546FFF79AFF68602846FFF796FF5B
:10062000A8602846FFF792FF6F68E8600024042363
:10063000C7E9024308222146C7E90044C7E9044448
:100640007C66BC6107F15C00FFF7B2FEDFF88CB09E
:10065000AE68DFF88CA0DFF88C90DFF88C801D4B43
:10066000C7F828A0C7E9087BC7F82C90C7F83080E6
:100670000822F360C6E90044C6E904447466B46025
:10068000B461214606F15C00FFF792FEC6E9086BF3
:10069000C6E90AA9C6F83080EE680F4BF360C6E9D8
:1006A0000044C6E904447466B460B461214608227B
:1006B00006F15C00FFF77CFE0123C6E9086BC6E982
:1006C0000B98C6F828A0AB61BDE8F88FE06D000874
:1006D0000D0500080900010012000200B510000815
:1006E000DD1000081D1100083D110008024B0349F0
:1006F000186800F045B800BFE06D000875140008E8
:10070000836903B976E77047704700BF704700BF41
:10071000704700BF704700BF024B0349186800F0E4
:100720000FB800BF0000002009050008024B034974
:10073000186800F005B800BF000000201905000887
:100740002DE9F041884600F148070026D7E9015419
:10075000013D0FD4A389012B05F1FF3506D9B4F96A
:100760000E300133204601D0C04706436B1C04F114
:100770006804EFD13F68002FE8D13046BDE8F08132
:100780002DE9F8430746884600F148064FF0000976
:10079000D6E90154013D11D4A389012B05F1FF35A0
:1007A00008D9B4F90E300133214603D03846C0478A
:1007B00049EA00096B1C04F16804EDD13668002E8B
:1007C000E6D14846BDE8F883F8B5CD1C25F0030511
:1007D00008350C2D38BF0C25002D064623DBA94219
:1007E00021D8254F01F098F93A6822B3144603E066
:1007F00063682246FBB11C4623685B1BF8D40B2BB5
:1008000015D8636894420CBF3B605360304601F0DA
:1008100085F904F10B00231D20F00700C21A01D056
:100820001B1AA350F8BD0C2333600020F8BD2360D1
:100830001C442560EAE77968C9B12946304600F0D2
:1008400027FC431C0CD0C41C24F00304A04205D098
:10085000211A304600F01CFC013001D02560D5E79C
:100860000C233046336001F059F90020F8BD3046C2
:1008700000F00EFC7860E0E7080200209368013B7E
:10088000002B936011DA10B49469A34209DB0A29A2
:1008900007D01368581C1060197008465DF8044BA7
:1008A00070475DF8044B00F04DBC1368581C106095
:1008B00019700846704700BF9BB1F8B5134406464F
:1008C0000F46541E5D1E01E0AC4208D014F8011F13
:1008D0003A463046FFF7D2FF431CF5D1F8BD002061
:1008E000F8BD0020704700BF936810B5144613B9D7
:1008F0005360184610BD00F027FE0023C4E9013301
:1009000010BD00BF2DE9F04F88469FB015461C462C
:10091000814618B18369002B00F0A280924B984564
:1009200000F0A480914B984500F0B180904B984521
:1009300008BFD9F80C80B8F80C30180740F19D803A
:10094000D8F81030002B00F0988000230B93297802
:10095000884E059420238DF8313030238DF83230C5
:100960000127002974D02C460B4604E014F8013FFF
:10097000002B00F08F80252BF8D1B4EB050B40F055
:100980008C802378002B63D000234FF0FF32CDE919
:100990000723069309938DF85B301C93013404E020
:1009A000069A07FA03F3134306932546052214F823
:1009B000011B304600F0E4FF831B0028F0D1069BAA
:1009C000D90644BF20228DF85B2029781A0744BF3E
:1009D0002B228DF85B202A2970D1059A11680432E8
:1009E00000290592C0F29B800991697801352E2972
:1009F00076D0614C0322204600F0C2FF38B1069B3E
:100A0000001B402404FA00F003430693013515F857
:100A1000011B5A488DF83010062200F0B1FF002863
:100A200000F08380564B002B6DD005AA0092554BE9
:100A3000424606A94846AFF300800390039B01336A
:100A400006D00B9B039A297813440B9300298AD173
:100A5000B8F80C305B0617D40B981FB0BDE8F08FC8
:100A6000FFF74EFE404B98457FF45CAFD9F8048009
:100A7000B8F80C3018073FF563AF4146484600F020
:100A8000DBFB00283FF461AF4FF0FF30E5E7D9F81A
:100A9000088050E7B4EB050BDAD0AA46C5F1010592
:100AA00003E0934536D91AF8011F42464846FFF73E
:100AB000E5FE013005EB0A02F3D1C9E7A1F13002EE
:100AC000092A94D8099B15F8011F03EB830302EB55
:100AD0004303A1F13002092AF5D92E29099388D1BF
:100AE00069782A292BD1059BA9781A6807920433C3
:100AF000002A05F102000593B8BF4FF0FF33054609
:100B0000B8BF079375E7059B073323F00703083346
:100B1000059396E70B9A23785A440B9232E74942A1
:100B200043F00203099106935FE705AA0092154B73
:100B3000424606A9484600F0CBF803907EE7A1F1B3
:100B400030020023092A079305F101053FF651AF52
:100B500015F8011F03EB830302EB4303A1F13002FD
:100B6000092AF5D9079344E7246E0008046E0008AB
:100B7000E46D0008E46E0008EC6E0008F06E0008FA
:100B800000000000B908000810B4054C8446134664
:100B900020685DF8044B0A466146FFF7B3BE00BF0C
:100BA000000000202DE9F84F92461F460A698B6825
:100BB000DDF828909A42B8BF1A46CAF8002091F88A
:100BC00043300C46064613B10132CAF800202268B1
:100BD00091065DD5DAF800300233CAF80030226899
:100BE00012F0060F11461ED1E168CB1A002BD8BFB8
:100BF000114618DD04F1190B4FF0000805E0E56817
:100C0000DAF80030ED1A45450CDD01235A46394625
:100C10003046C847013008F10108F0D14FF0FF30ED
:100C2000BDE8F88F216894F84330003B18BF0123DA
:100C30008A060AD5E1185A1C302081F84300224464
:100C400094F8451082F84310023304F14302394608
:100C50003046C8470130E1D0236803F00603042B77
:100C60001DD0A3682269934225DD4FF000089B1A2E
:100C700098441A34002501E045451CDA0123224638
:100C800039463046C847013005F10105F4D1C5E7C2
:100C900012F0060F12D0003B18BF0123D5E7DAF897
:100CA0000030E1682269C91AA368934221EAE17819
:100CB000DDDC0029DDDC0020BDE8F88FE168DAF832
:100CC0000030CB1A002BD8BF114693DCABE700BF36
:100CD0002DE9F0470C4684B09046227E0C990746D9
:100CE000994604F14300002A33D0A2F15803DDB243
:100CF000202D67D8202B65D8DFE813F0DE006400D4
:100D000064006400640064006400640064006400C3
:100D10006400A3006E0064006400640064006E0060
:100D2000640064006400640021007F00C00064006F
:100D30006400AE0064007F0064006400E500236886
:100D40001A0640F104810B6862691D1D0D601B6865
:100D50001A60002382462361CDF80090434603AA1F
:100D600021463846FFF71EFF013020D02369524646
:100D700041463846C847013019D02368E068039ED1
:100D80009B0719D5831B002B16DD04F1190A0025DA
:100D900004E0E068039E831BAB420DDD0123524655
:100DA00041463846C847013005F10105F1D14FF001
:100DB000FF3004B0BDE8F087B042B8BF304604B0A1
:100DC000BDE8F087012384F84220236104F1420A40
:100DD000002384F84330BFE723681A0602D45E0676
:100DE00000F1C1800D682A6804350D601546002A9F
:100DF0006BDBDFF884C10A2610E023681D0640F192
:100E00009C800B681D1D0D601D68DFF86CC16F2A8A
:100E10000CBF08260A26002384F843306268A260CB
:100E2000002A7FDB236823F004032360002D5BD1BD
:100E3000002A79D18246082E65D0A0EB0A002061F5
:100E40008AE70B680122186804330B6004F1420A38
:100E500084F842002261BBE70B686268181D0860D5
:100E6000D3F800A00021504600F08AFD002800F0D1
:100E70008180A0EB0A0060602061A9E7236843F04D
:100E8000200323607822DFF8F4C084F845200A6844
:100E9000151D0D601D0643D4590641D51588DE0782
:100EA00044BF43F020032360002D44D1236823F086
:100EB000200323601026AEE7582384F84530DFF87E
:100EC000B8C02368E3E72368DCE76268A2602D21ED
:100ED000002AC5F1000584F8431002DB23F0040367
:100EE0002360DFF894C00A268246B5FBF6F306FBC2
:100EF00013512A461CF801100AF8011DB2421D4682
:100F0000F3D2082E99D12368D90796D56268236950
:100F10009A4292DC30230AF8013C0AF1FF3A8CE74E
:100F20001568BCE7002DDFD19CF8003084F8423012
:100F300004F1420A7FE710266DE713F0400F0B68BB
:100F400003F104050D600CBF1D681D885DE713F0FB
:100F5000400F0B68626903F104050D601B6814BF44
:100F60001A801A60F5E60A68B2F9005004320A6085
:100F70002A463CE760687FE7F86E00080C6F0008BF
:100F800070B50D461646044608B18369CBB11A4BBD
:100F90009E421BD0194B9E4224D0194B9E4208BF43
:100FA000E668B368013B002BB36015DAB069834291
:100FB0001ADBE8B20A2817D033685C1C34601D7055
:100FC00070BDFFF79DFB0C4B9E42E3D16668B36892
:100FD000013B002BB360E9DB33685C1C34601D709F
:100FE000E8B270BDA668DCE7324629462046BDE877
:100FF000704000F0A7B800BF246E0008046E00081F
:10100000E46D00081E4B70B51E6805460C460EB117
:10101000B369CBB11B4B9C421CD01B4B9C4225D0CF
:101020001A4B9C4208BFF468A368013B002BA360E5
:1010300016DAA26993421BDBE8B20A2818D02368AB
:10104000591C21601D7070BD3046FFF759FB0D4BD8
:101050009C42E2D17468A368013B002BA360E8DBEB
:101060002368591C21601D70E8B270BDB468DBE7CD
:10107000224629463046BDE8704000F063B800BF04
:1010800000000020246E0008046E0008E46D0008D3
:1010900038B5074D0022044608462A6004F00CFECD
:1010A000431C00D038BD2B68002BFBD0236038BD1B
:1010B0001002002010B50C46B1F90E1000F0BAFD78
:1010C000002803DB636D0344636510BDA38923F42B
:1010D0008053A38110BD00BF002070472DE9F0416F
:1010E0000C46B1F90C101F46CB05054616460BD42D
:1010F00021F48051A1813B46B4F90E1032462846B6
:10110000BDE8F04100F082B8B4F90E1002230022CD
:1011100000F092FBB4F90C10EAE700BF10B50C46E2
:10112000B1F90E1000F088FBA389421C0EBF23F416
:10113000805343F480536065A38110BDB1F90E1054
:1011400000F0FCB8F8B50D461446064608B18369B0
:1011500043B3254B9C422AD0244B9C4229D0244B9C
:101160009C4208BFF468A389A269A2601A0722D52D
:10117000236903B322686169D31AEDB299422F46FD
:1011800029DD0133A1680139A160511C216015706E
:1011900062699A4216D0A389DB0701D50A2D11D0C6
:1011A0003846F8BDFFF7ACFA0F4B9C42D4D17468B7
:1011B000D9E7B468D7E72146304600F03DF838B9A2
:1011C0002369D7E72146304600F054F90028E7D0DC
:1011D0004FF0FF37E4E72146304600F04BF9002896
:1011E000F6D122680123CDE7246E0008046E0008C2
:1011F000E46D000810B4044C03460A4620685DF80C
:10120000044B1946FFF79EBF0000002038B50C467E
:10121000084D8446114620461A4600232B6064463A
:1012200004F07EFD431C00D038BD2B68002BFBD0A2
:10123000236038BD100200203C4B70B51D68064687
:101240000C460DB1AB69E3B1394B9C421FD0394B11
:101250009C424DD0384B9C4208BFEC68B4F90C302E
:1012600018079AB219D5216911B312F001002FD0D5
:101270000020A06060694042A06100292ED00020BB
:1012800070BD2846FFF73CFA294B9C42DFD16C68C1
:10129000B4F90C3018079AB2E5D4D1063ED55207FE
:1012A00028D4216943F00803A3819AB20029DCD134
:1012B00002F42070B0F5007FD7D02146304600F010
:1012C000D1FAB4F90C3021699AB212F00100CFD1F1
:1012D000950758BF6069A0600029D0D1120658BF99
:1012E0000846CDD543F04003A3814FF0FF3070BDD9
:1012F000AC68B3E7616B51B104F14402914204D090
:10130000304600F00DFCB4F90C3000226263216914
:101310000022C4E9001223F02403C3E7092243F0AA
:10132000400332604FF0FF30A38170BD0000002009
:10133000246E0008046E0008E46D000838B5074DFF
:101340000022044608462A6004F0F8FC431C00D042
:1013500038BD2B68002BFBD0236038BD1002002065
:101360008B891A072DE9F0410C4680463FD44A6824
:10137000002A58DDE66A002E52D00022D8F800502C
:10138000C8F8002013F4805251D10123216A40464D
:10139000B047431C5ED0A389E66A5F0705D5636842
:1013A000C01A636B0BB1236CC01A216A024600237A
:1013B0004046B047411C3CD1D8F80030002B38D013
:1013C0001D2B01D0162B4DD123690022C4E9003218
:1013D000616BC8F8005019B304F14403994202D07C
:1013E000404600F09DFB00206063BDE8F0810E697F
:1013F000B6B10D680E609A070CBF4B690023AD1B98
:101400008B600BE02B463246216AA76A4046B847FC
:10141000B0F1000CA5EB0C05664413DD002DF1DCEA
:101420000020BDE8F0810A6C002AA3DCF8E7606DBB
:10143000B3E70023636023692360A389DB04C7D576
:101440006065C5E7A38943F040034FF0FF30A381F7
:10145000BDE8F081D8F80030002B9CD01D2B06D0C1
:10146000162B04D0A38943F04003A381D9E7C8F821
:101470000050D5E738B50B69BBB10D46044608B13D
:101480008369B3B10D4B9D4211D00D4B9D4213D0DA
:101490000C4B9D4208BFE568B5F90C302BB12946CD
:1014A0002046BDE83840FFF75BBF002038BD6568C7
:1014B000F2E7FFF725F9E5E7A568EDE7246E0008F8
:1014C000046E0008E46D000838B540B303690446B3
:1014D000E3B1174B1D680DB1AB69CBB1154B9C4205
:1014E0000FD0154B9C4221D0144B9C4208BFEC6896
:1014F000B4F90C3053B121462846BDE83840FFF717
:101500002FBF6C68B4F90C30002BF4D1002038BD2B
:101510002846FFF7F5F8074B9C42E2D1F1E7084B6C
:1015200008491868BDE83840FFF72AB9AC68DFE71A
:1015300000000020246E0008046E0008E46D00081E
:10154000E06D0008751400089368002B00F085809A
:101550002DE9F04FB1F90C300C461907804683B0E5
:10156000174698B225D523691BB310F002033D68D6
:101570002DD04FF0000ADFF8BCB25646B9465E45A2
:101580003346524628BF5B464046002E52D0216A61
:10159000A76AB847002856DDD9F808301B1A8244DC
:1015A000361AC9F80830002BE9D1002003B0BDE895
:1015B000F08F21464046FFF73FFE002840F036817D
:1015C000B4F90C303D6898B210F00203D1D110F09C
:1015D000010944D14E46009746B38205D4F808B0BD
:1015E00040F18380B3455A4600F2B28010F4906F08
:1015F00040F0BF8020680192494600F011FAA368CC
:10160000019AA3EB0B012368A1601344B246236047
:101610000026009B9868A0EB0A00D144986000283F
:10162000C3D0B4F90C0080B2002ED6D1D5E9009613
:101630000835D1E7D5E900A60835A0E721464046A0
:10164000FFF718FF80B3B4F90C3043F040034FF0BC
:10165000FF30A38103B0BDE8F08F002070471E4625
:10166000AA46994618461D46009756B388B34A467F
:10167000D4E904132068B24228BF3246884205D913
:10168000A16803EB010B5A4500F3A680934263DC8B
:10169000216AA76A2A464046B847B0F1000BD2DD5E
:1016A000B9EB0B09CAD00120009A9368A3EB0B0396
:1016B0005D44A6EB0B069360002B3FF476AF002E43
:1016C000D4D10AF1080353E902569A460833002E92
:1016D000F9D032460A21284600F052F9002800F0DD
:1016E0009C800130A0EB0509C1E72068236998427E
:1016F00016D86369B34213D86FF00042B24228BFD4
:101700003246216A92FBF3F2A76A02FB03F34046DA
:101710004A46B847B0F1000A95DDA6EB0A0678E71D
:10172000B345DA4628BFB2465246494600F078F93A
:10173000A3682268A3EB0A035244A3602260002B33
:10174000EBD121464046FFF795FE0028E5D07AE729
:101750002068B34632464EE72946019200F060F910
:10176000019AA3689B1AA3602368134423609346DD
:1017700096E723682169A3EB010B636903EB430A36
:101780000AEBDA7A0BF101034FEA6A0A3344534554
:10179000524684BF9A46524643052CD511464046D0
:1017A000FFF712F800283BD05A4621690190FEF756
:1017B00065FDA289019B22F4906242F08002A28121
:1017C00003EB0B002361AAEB0B03C4F814A0A36086
:1017D0002060B34632460EE729465A4600F020F90B
:1017E00023685B44236021464046FFF743FE002800
:1017F0003FF456AF27E7404600F0F4F903460028CF
:10180000DED12169404600F08BF9B4F90C300C228E
:1018100023F08003C8F8002017E7721C914627E7E1
:101820000C22B4F90C30C8F800200EE74FF0FF305E
:10183000BCE600BF00FCFF7F38B50C46084D84466F
:10184000114620461A4600232B60644604F080FAB5
:10185000431C00D038BD2B68002BFBD0236038BD63
:1018600010020020F0B58B890C46990797B007D578
:1018700004F147030122C4E90432236017B0F0BD2C
:10188000B4F90E10002905462DDB6A4600F0E8F990
:10189000002827DB019E06F470464FF48067A6F50A
:1018A0000056B6FA86F6394628467609FEF78CFFCA
:1018B00030B3A3891A4AAA6243F08003C4E904073B
:1018C000A3812060002ED9D0B4F90E10284600F074
:1018D000DDF90028D2D0A38923F0030343F00103EC
:1018E000A381CBE7A38913F0800F14BF40274FF4E7
:1018F0008067394628460026FEF766FF0028D8D1C3
:10190000B4F90C309A05B9D423F0030304F147026B
:1019100043F002030121C4E90421A3812260ADE761
:101920000D05000870B50C46B1F90E10002996B0EF
:1019300016461D4613DB6A4600F092F900280EDBBE
:10194000019901F47041A1F50051B1FA81F14FF410
:101950008063490900202960336016B070BDB4F976
:101960000C3000221B062A6004D54023002033607F
:1019700016B070BD4FF480630020336016B070BDA8
:1019800001F0FF01102A2BDB10F0070F08D010F830
:10199000013B013A8B422DD010F0070F42B3F6D134
:1019A000F0B441EA012141EA014122F007047FF04D
:1019B00000070023F0E80256083C85EA010586EAA4
:1019C000010685FA47F5A3FA87F586FA47F6A5FAE0
:1019D00087F68EB9EED1F0BC01F0FF0102F00702EC
:1019E00032B110F8013B013A83EA010313B1F8D197
:1019F0000020704701387047002D06BF3546033878
:101A0000073815F0010F07D1013015F4807F02BFB0
:101A1000013015F4C03F0130F0BC0138704700BF01
:101A200088420DD98B1883420AD900EB020CBAB157
:101A3000624613F801CD02F801CD9942F9D1704701
:101A40000F2A0ED8034602F1FF3C4AB10CF1010CFB
:101A5000013B8C4411F8012B03F8012F6145F9D1AA
:101A6000704740EA01039B0750D1A2F1100370B503
:101A700001F1200C23F00F0501F1100E00F110040C
:101A8000AC441B095EF8105C44F8105C5EF80C5C1A
:101A900044F80C5C5EF8085C44F8085C5EF8045C92
:101AA00044F8045C0EF1100EE64504F11004E9D18F
:101AB000013312F00C0F01EB031102F00F0400EBE5
:101AC000031327D0043C24F003064FEA940C1E4471
:101AD0001C1F8E465EF8045B44F8045FB442F9D1E3
:101AE0000CF1010402F0030203EB840301EB840117
:101AF00002F1FF3C4AB10CF1010C013B8C4411F89E
:101B0000012B03F8012F6145F9D170BD02F1FF3CB3
:101B100003469BE72246EBE7704700BF704700BFD4
:101B2000002958D030B551F8043C83B0002BA1F106
:101B30000404B8BFE4180190FFF7EEFF284A0198AB
:101B4000136833B1A3420DD9216804EB010C63453E
:101B50002FD06360146003B0BDE83040FFF7DEBFF4
:101B6000A34210D81A465B68002BF9D1116802EB2A
:101B7000010C644519D02FD36360546003B0BDE8F5
:101B80003040FFF7CBBF116802EB010CA44516D023
:101B900022D8216804EB010C6345EDD11D685B6818
:101BA0002944C4E900135460D5E72368194411603F
:101BB000D1E71D685B682944C4E90013CAE72468BB
:101BC00021445418A3421160C5D1D3E900432144F4
:101BD000C2E90013BFE770470C230360BBE700BFF7
:101BE00008020020F8B51446F9B1CAB106460D4600
:101BF00000F05EF8A04202D32F463846F8BD2146D9
:101C00003046FEF7E1FD07460028F6D02246294679
:101C1000FEF734FB30462946FFF782FF3846F8BD11
:101C20002746FFF77DFF3846F8BDBDE8F84011466E
:101C3000FEF7CABD38B50C46084D8446114620460D
:101C40001A4600232B60644604F05AF8431C00D067
:101C500038BD2B68002BFBD0236038BD100200205C
:101C600070B50C46084D03460026204611461C461A
:101C70002E6004F066F8431C00D070BD2B68002B6A
:101C8000FBD0236070BD00BF1002002038B5074DA7
:101C90000022044608462A6004F058F8431C00D08D
:101CA00038BD2B68002BFBD0236038BD100200200C
:101CB00051F8040C0028A0F10400BCBF0B58C01858
:101CC000704700BF53B94AB9002908BF00281CBF9C
:101CD0004FF0FF314FF0FF3000F074B9ADF1080C58
:101CE0006DE904CE00F006F8DDF804E0DDE902233A
:101CF00004B070472DE9F047089D04468E46002B3E
:101D00004DD18A42944669D9B2FA82F252B101FAAF
:101D100002F3C2F1200120FA01F10CFA02FC41EABF
:101D2000030E94404FEA1C48210CBEFBF8F61FFA44
:101D30008CF708FB16E341EA034306FB07F19942DF
:101D40000AD91CEB030306F1FF3080F01F81994292
:101D500040F21C81023E63445B1AA4B2B3FBF8F06C
:101D600008FB103344EA034400FB07F7A7420AD9F3
:101D70001CEB040400F1FF3380F00A81A74240F21B
:101D800007816444023840EA0640E41B00261DB186
:101D9000D4400023C5E900433146BDE8F0878B42BB
:101DA00009D9002D00F0EF800026C5E9000130467A
:101DB0003146BDE8F087B3FA83F6002E4AD18B4254
:101DC00002D3824200F2F980841A61EB03030120FE
:101DD0009E46002DE0D0C5E9004EDDE702B9FFDEEA
:101DE000B2FA82F2002A40F09280A1EB0C014FEA95
:101DF0001C471FFA8CFE0126200CB1FBF7F307FBF2
:101E0000131140EA01410EFB03F0884208D91CEB94
:101E1000010103F1FF3802D2884200F2CB80434631
:101E2000091AA4B2B1FBF7F007FB101144EA014410
:101E30000EFB00FEA64508D91CEB040400F1FF319F
:101E400002D2A64500F2BB800846A4EB0E0440EA8D
:101E500003409CE7C6F12007B34022FA07FC4CEA96
:101E6000030C20FA07F401FA06F31C43F9404FEA89
:101E70001C4900FA06F3B1FBF9F8200C1FFA8CFE9E
:101E800009FB181140EA014108FB0EF0884202FAF2
:101E900006F20BD91CEB010108F1FF3A80F08880B3
:101EA000884240F28580A8F102086144091AA4B270
:101EB000B1FBF9F009FB101144EA014100FB0EFEF1
:101EC0008E4508D91CEB010100F1FF346CD28E4520
:101ED0006AD90238614440EA0840A0FB0294A1EBB1
:101EE0000E01A142C846A64656D353D05DB1B3EB0E
:101EF000080261EB0E0101FA07F722FA06F3F1403E
:101F00001F43C5E9007100263146BDE8F087C2F1E4
:101F10002003D8400CFA02FC21FA03F3914001435C
:101F20004FEA1C471FFA8CFEB3FBF7F007FB103695
:101F30000B0C43EA064300FB0EF69E4204FA02F441
:101F400008D91CEB030300F1FF382FD29E422DD994
:101F5000023863449B1B89B2B3FBF7F607FB1633C9
:101F600041EA034106FB0EF38B4208D91CEB010149
:101F700006F1FF3816D28B4214D9023E6144C91AC9
:101F800046EA004638E72E46284605E70646E3E6D9
:101F90001846F8E64B45A9D2B9EB020864EB0C0EE3
:101FA0000138A3E74646EAE7204694E74046D1E7F2
:101FB000D0467BE7023B614432E7304609E76444A0
:101FC000023842E7704700BF70B586B00024019424
:101FD00002940394049405944FF4805601960123CF
:101FE00002930C4D01A9284601F098FB2246314688
:101FF000284601F073FC142001F060FF02230293D5
:10200000032304930A23059301A9284601F086FBC4
:1020100006B070BD0000024072B6FEE700B595B094
:102020003022002108A8FEF7C3F90023039304938C
:1020300005930693079301931F4A116C41F0805159
:102040001164126C02F080520192019A02931B4BB0
:102050001A6842F440421A601B6803F4404302933A
:10206000029B012308934FF48033099302230E93BC
:102070004FF480020F9219221092C02211921293F3
:102080000423139308A801F025F888B90F230393BC
:1020900002230493002305934FF480520692079382
:1020A000032103A801F064FA20B915B05DF804FB20
:1020B000FFF7B2FFFFF7B0FF0038024000700040AA
:1020C00030B589B000240094724B1A6B42F00402C0
:1020D0001A631B6B03F004030093009B03940494A6
:1020E0000594069407944FF400530393012304933B
:1020F00003A9694801F012FB10E001224FF40051DE
:10210000654801F0EBFB00230293029A634B9A426D
:1021100003DC029B01330293F7E70134012C0FDC4F
:1021200000224FF400515C4801F0D8FB00230193DA
:10213000019A5A4B9A42E0DC019B01330193F7E785
:1021400001F090FEFFF76AFF00F0B0F800F024F90C
:1021500000F056F900F034FAFFF736FF03F0FAFD0D
:10216000002413E04C4D00224FF40051284601F0AA
:10217000B5FB642001F0A2FE01224FF40051284675
:1021800001F0ACFB642001F099FE0134022CE9DD82
:1021900006E0434B1B7873BB424B1B78002B63D18B
:1021A000414B1B78002BF4D03B4C00224FF40051E4
:1021B000204601F093FB642001F080FE01224FF4E1
:1021C0000051204601F08AFB642001F077FE0022D6
:1021D0004FF40051204601F081FB642001F06EFEB7
:1021E00001224FF40051204601F078FB4FF42F708C
:1021F00001F064FED4E7284C00224FF40051204641
:1022000001F06CFB642001F059FE01224FF40051F3
:10221000204601F063FB642001F050FE00224FF4E1
:102220000051204601F05AFB642001F047FE0122D4
:102230004FF40051204601F051FB642001F03EFEB6
:1022400000224FF40051204601F048FB642001F0C9
:1022500035FE01224FF40051204601F03FFB4FF4C0
:10226000FA7001F02BFE9BE70B4C00224FF400515B
:10227000204601F033FB642001F020FE01224FF4E0
:102280000051204601F02AFB4FF4617001F016FE68
:1022900086E700BF00380240000802409F86010028
:1022A000C6030020C4030020C503002070B58AB017
:1022B0000024059406940794089409940194334BE0
:1022C0001A6B42F004021A631A6B02F004020192C4
:1022D000019A02941A6B42F080021A631A6B02F0A0
:1022E00080020292029A03941A6B42F001021A636E
:1022F0001A6B02F001020392039A04941A6B42F0E3
:1023000002021A631B6B03F002030493049B204E2A
:1023100022464FF40051304601F0E0FA4FF40053EA
:102320000593012506950794089405A9304601F008
:10233000F5F90F2305934FF444130693079505A968
:10234000144801F0EBF922460321062001F00AFDB2
:10235000062001F03FFD22460321072001F002FD87
:10236000072001F037FD22460321082001F0FAFC86
:10237000082001F02FFD22460321092001F0F2FC84
:10238000092001F027FD0AB070BD00BF00380240EF
:10239000000802400004024010B582B000240094FE
:1023A000164B1A6B42F400121A631A6B02F40012F5
:1023B0000092009A01941A6B42F480021A631B6B1C
:1023C00003F480030193019B224601210D2001F0BB
:1023D000C9FC0D2001F0FEFC224601210F2001F076
:1023E000C1FC0F2001F0F6FC22460221462001F03C
:1023F000B9FC462001F0EEFC02B010BD00380240EE
:1024000000B58BB0002306930793089309930493B8
:10241000059300930193029303932348234A026098
:10242000436083604FF0FF32C2600361836100F05C
:1024300097FC38BB4FF48053069306A91A4800F066
:102440008AFD10BB184800F0B7FC08BB00230493BA
:10245000059304A9144800F0FDFDE0B900220092A4
:10246000012301930292039269460F4800F004FD94
:10247000A0B9042269460C4800F0FEFC88B90BB0F4
:102480005DF804FBFFF7C8FDD4E7FFF7C5FDD9E70A
:10249000FFF7C2FDDAE7FFF7BFFDDFE7FFF7BCFD9F
:1024A000E7E7FFF7B9FDEAE7D4020020000C00409F
:1024B00030B589B0002303930493059306930793E3
:1024C0000268394B9A4201D009B030BD044600255C
:1024D000019503F50B331A6C42F008021A641A6C6A
:1024E00002F008020192019A02951A6B42F0010271
:1024F0001A631B6B03F001030293029B03230393F4
:1025000002230493079303A9284801F007F92848F8
:10251000284B03604FF0406343608560C5604FF413
:10252000806303614FF4805343614FF480438361C0
:102530004FF48073C3614FF400330362456201F0CE
:102540004DFA50BB1A4B63629C631B481B4B0360E4
:102550004FF04063436000238360C3604FF48062A8
:1025600002614FF4805242614FF4804282614FF425
:102570008072C2614FF400320262436201F02EFAAF
:1025800070B90D4BA3629C6300220121322001F03F
:10259000E9FB322001F01EFC96E7FFF73DFDD1E795
:1025A000FFF73AFDEDE700BF000C004000000240DD
:1025B000140200204060024074020020706002405B
:1025C00008B50A480A4B036047F61223436000230C
:1025D0008360C3600361082242618361C36101F0CB
:1025E00067FD00B908BDFFF717FDFBE77C0300207E
:1025F000001001402DE9F04788B0002303930493B5
:10260000059306930793026803F1804303F588332B
:102610009A4202D008B0BDE8F08704460025009534
:1026200003F594335A6C42F010025A645A6C02F06B
:1026300010020092009A01951A6B42F001021A638F
:102640001A6B02F001020192019A02951A6B42F094
:1026500002021A631B6B03F002030293029B4FF406
:10266000806603964FF0020ACDF810A04FF00309E0
:10267000CDF818904FF00708CDF81C8003A9194831
:1026800001F04CF840270397CDF810A00595CDF840
:102690001890CDF81C8003A9134801F03FF81348A7
:1026A000134B03604FF0006343608760C5600661B1
:1026B00045618561C5614FF480330362456201F075
:1026C0008DF958B9094BA3639C6300220221252090
:1026D00001F048FB252001F07DFB9BE7FFF79CFC08
:1026E000F0E700BF00000240000402401C0300208D
:1026F000B8640240D0F8D432B03350F82330002010
:10270000187370470A23038000487047880100202F
:1027100010B504468121054803F041FF08B10122AC
:10272000827122232380014810BD00BF5801002080
:1027300010B504468121054803F031FF08B101229C
:10274000827122232380014810BD00BF5801002060
:1027500010B504468121054803F021FF08B1072286
:10276000827122232380014810BD00BF5801002040
:1027700030B583B0D0F8D432B03350F823300022D3
:10278000ADF80620002B00F082800C7814F0600475
:1027900025D0202C75D14A78023A092A1BD8DFE8C7
:1027A00002F014091A1A1A1A1A1A0F058A781A60EE
:1027B000002469E00122194604F0A8FA002463E02D
:1027C0004A88120A5A6000245EE00122191D04F0B2
:1027D0009DFA002458E003F01FFF032454E04D78D5
:1027E0000B2D4AD8DFE805F00650494949491649FA
:1027F00049492E3D90F89C32DBB2032B03D003F005
:102800000BFF032440E002220DF1060104F07EFAE2
:102810002C4639E04B881B0A222B09D0212B0DD1E5
:10282000CA88092A28BF09221A4904F06FFA2BE046
:10283000CA88B92A28BFB9221749F6E703F0ECFE87
:10284000032421E090F89C22D2B2032A03D003F0A3
:10285000E3FE032418E0012203F1080104F056FA14
:1028600012E090F89C22D2B2032A02D18A789A60B0
:102870000AE003F0D1FE032406E003F0CDFE0324BA
:1028800002E003F0C9FE0324204603B030BD032458
:10289000FAE700BF7C0100206400002010B5044668
:1028A000812103F0A9FB002323876387D4F8D43266
:1028B000B03354F8230038B103F080FBD4F8D4329D
:1028C000B033002244F82320002010BD38B5044660
:1028D000102003F06FFBB0B10546D4F8D432B0330A
:1028E00044F82300C4F8BC02237CA3B90723638700
:1028F000042303228121204603F073FB0123238755
:102900000020287338BDD4F8D432B033002244F804
:1029100023200220F6E701236387E9E7FEE7FEE7CD
:10292000FEE7FEE7FEE770477047704708B501F025
:10293000B3FA08BD08B5012000F0D8FF08BD08B5FE
:10294000022000F0D3FF08BD08B5042000F0CEFF40
:1029500008BD08B5082000F0C9FF08BD08B5024849
:1029600001F000F908BD00BF1402002008B50248BC
:1029700001F0F8F808BD00BF7402002008B5024855
:1029800001F052FC08BD00BF7C03002008B50248DE
:1029900000F0E0F808BD00BFD402002008B50E4AE0
:1029A00013780133DBB213700C4B1B685A6912F4B5
:1029B000805F04D00A490A780132D2B20A705B699A
:1029C00013F4006F04D0074A13780133DBB213709D
:1029D000024802F095F808BDC4030020AC060020B0
:1029E000C5030020C603002008B5024801F0BAF86C
:1029F00008BD00BF1C03002082B0002100910B4BDA
:102A00005A6C42F480425A645A6C02F4804200923A
:102A1000009A01911A6C42F080521A641B6C03F008
:102A200080530193019B02B0704700BF0038024001
:102A3000034B834200D07047024B01221A70FAE721
:102A40007C0300209201002010B4036A046A24F081
:102A500001040462846924F0F00C4CEA021223F0B1
:102A60000A030B43826103625DF8044B704730B484
:102A7000056A046A24F010040462846924F4407C2A
:102A80004CEA022C2CF4704C1B039BB243EA0C035F
:102A900025F0A005090101F0A0012943836101622D
:102AA00030BC704710B4036A046A24F01004046256
:102AB000846924F4704C4CEA023223F0A00343EA08
:102AC0000113826103625DF8044B704730B4056AFC
:102AD000046A24F480740462C46924F0030C4CEA90
:102AE000020C2CF0F00C1B01DBB243EA0C0325F4C2
:102AF0002065090201F420612943C361016230BCF1
:102B0000704730B4056A046A24F480540462C469CE
:102B100024F4407C4CEA022C2CF4704C1B039BB236
:102B200043EA0C0325F42045090301F4204129431D
:102B3000C361016230BC7047836823F070030B43AC
:102B400043F00703836070477047704770477047D2
:102B50007047704770B504460368DE681D6915F05C
:102B6000020F10D016F0020F0DD06FF002021A61A2
:102B70000123037703689B6913F0030F5ED0FFF70F
:102B8000E6FF0023237715F0040F12D016F0040F90
:102B90000FD023686FF004021A61022323772368A1
:102BA0009B6913F4407F4FD02046FFF7D0FF0023EE
:102BB000237715F0080F12D016F0080F0FD02368F6
:102BC0006FF008021A61042323772368DB6913F08E
:102BD000030F40D02046FFF7BAFF0023237715F0FC
:102BE000100F12D016F0100F0FD023686FF01002E4
:102BF0001A61082323772368DB6913F4407F31D0FF
:102C00002046FFF7A4FF0023237715F0010F02D021
:102C100016F0010F2DD115F0800F02D016F0800FA5
:102C20002FD115F0400F02D016F0400F31D115F022
:102C3000200F02D016F0200F33D170BDFFF786FFB2
:102C40002046FFF785FF9CE72046FFF77FFF2046E1
:102C5000FFF77EFFABE72046FFF778FF2046FFF740
:102C600077FFBAE72046FFF771FF2046FFF770FFB6
:102C7000C9E723686FF001021A612046FFF765FF7C
:102C8000C9E723686FF080021A61204600F021FA3C
:102C9000C7E723686FF040021A612046FFF759FF2B
:102CA000C5E723686FF020021A61204600F010FA91
:102CB000C3E700000368294A90420ED0B0F1804F6C
:102CC0000BD0A2F57C42904207D002F58062904280
:102CD00003D002F58062904203D123F070034A686A
:102CE00013431E4A90421AD0B0F1804F17D0A2F57C
:102CF0007C42904213D002F5806290420FD002F5E0
:102D0000806290420BD002F59A32904207D002F5D1
:102D10008062904203D002F58062904203D123F496
:102D20004073CA68134323F080034A691343036066
:102D30008B68C3620B688362084B98420AD00123F8
:102D40004361036913F0010F03D0036923F001030A
:102D5000036170470B690363F1E700BF00000140A6
:102D600040B310B5044690F83D30F3B1022384F827
:102D70003D30214651F8040BFFF79CFF012384F8F6
:102D8000463084F83E3084F83F3084F8403084F890
:102D9000413084F8423084F8433084F8443084F879
:102DA000453084F83D30002010BD80F83C30FFF7FE
:102DB0007FFBDBE70120704740B310B5044690F875
:102DC0003D30F3B1022384F83D30214651F8040B25
:102DD000FFF770FF012384F8463084F83E3084F812
:102DE0003F3084F8403084F8413084F8423084F831
:102DF000433084F8443084F8453084F83D30002076
:102E000010BD80F83C30FFF79FFEDBE701207047E4
:102E100070B4066A046A24F0010404628469154DE2
:102E2000A84215D0B0F1804F12D0A5F57C45A8423C
:102E30000ED005F58065A8420AD005F58065A84248
:102E400006D005F59A35A84202D044F0010202E00E
:102E500024F00304224322F0F0021B01DBB21343EF
:102E600026F00A0201F00A0111438361016270BC7D
:102E7000704700BF0000014038B590F83C30012B8E
:102E80005AD004460D46012380F83C3052B1042A42
:102E90001AD0082A2BD00C2A3BD00120002384F81A
:102EA0003C3038BDCB684A6809680068FFF7B0FF5E
:102EB0002268936923F00C03936122689369A968DF
:102EC0000B4393610020E9E7CB684A680968006812
:102ED000FFF7CDFD2268936923F440639361226874
:102EE0009369A96843EA012393610020D6E7CB6880
:102EF0004A6809680068FFF7E9FD2268D36923F092
:102F00000C03D3612268D369A9680B43D361002005
:102F1000C4E7CB684A6809680068FFF7F2FD2268D9
:102F2000D36923F44063D3612268D369A96843EA73
:102F30000123D3610020B1E70220B2E710B4846816
:102F400024F47F4C42EA03220A4342EA0C028260E4
:102F50005DF8044B704790F83C30012B78D010B5E9
:102F60000446012380F83C30022380F83D3002689B
:102F7000936823F47F4323F0770393600B68602BFF
:102F80004CD029D8402B54D00CD9502B22D1CA6810
:102F900049680068FFF758FD50212068FFF7CCFD15
:102FA000002005E0202B0DD009D9302B0AD00120BC
:102FB000012384F83D30002384F83C3010BD0BB170
:102FC000102B05D119462068FFF7B6FD0020EFE76A
:102FD0000120EDE70120EBE7B3F5805F34D0B3F5D6
:102FE000005F0CD1CB684A6889680068FFF7A6FFCC
:102FF0002268936843F4804393600020D8E7702BE5
:1030000024D1CB684A6889680068FFF797FF226877
:10301000936843F0770393600020C9E7CA68496862
:103020000068FFF73FFD60212068FFF785FD002065
:10303000BEE7CA6849680068FFF706FD40212068BE
:10304000FFF77AFD0020B3E70020B1E70120AFE7EA
:103050000220704790F83C30012B35D010B401238A
:1030600080F83C30022380F83D3003685A689C6841
:1030700022F0700C0A6842EA0C025A600368134A94
:10308000934212D0B3F1804F0FD0A2F57C4293420D
:103090000BD002F58062934207D002F58062934222
:1030A00003D002F59A32934204D124F080044A6896
:1030B00014439C60012380F83D30002380F83C30AD
:1030C00018465DF8044B704702207047000001402D
:1030D00070477047002800F0E08170B582B0044668
:1030E000036813F0010F3BD09F4B9B6803F00C0368
:1030F000042B2CD09C4B9B6803F00C03082B21D095
:103100006368B3F5803F4FD0B3F5A02F52D0964BF4
:103110001A6822F480321A601A6822F480221A6037
:103120006368002B50D000F0C3FE05468E4B1B6831
:1031300013F4003F14D100F0BBFE401B6428F5D906
:103140000320B1E1884B5B6813F4800FD8D0864B25
:103150001B6813F4003F03D06368002B00F09F81CD
:10316000236813F0020F54D07F4B9B6813F00C0FB1
:103170003ED07D4B9B6803F00C03082B33D0E368F3
:10318000002B68D0794B01221A6000F091FE0546B1
:10319000754B1B6813F0020F54D100F089FE401BE1
:1031A0000228F5D903207FE16F4A136843F4803386
:1031B0001360B5E76C4B1A6842F480221A601A68F3
:1031C00042F480321A60ABE700F072FE0546664BAF
:1031D0001B6813F4003FC3D000F06AFE401B642854
:1031E000F5D9032060E1604B5B6813F4800FC6D112
:1031F0005D4B1B6813F0020F03D0E368012B40F016
:103200005081594A136823F0F803216943EAC10346
:103210001360236813F0080F42D063696BB3534BFC
:103220000122C3F8802E00F043FE05464E4B5B6F33
:1032300013F0020F34D100F03BFE401B0228F5D9F9
:10324000032031E1484A136823F0F803216943EA77
:10325000C1031360DDE7454B00221A6000F028FE31
:103260000546414B1B6813F0020FD2D000F020FE40
:10327000401B0228F5D9032016E13C4B0022C3F87D
:10328000802E00F015FE0546374B5B6F13F0020FE2
:1032900006D000F00DFE401B0228F5D9032003E103
:1032A000236813F0040F77D02F4B1B6C13F0805F53
:1032B00033D1002301932C4B1A6C42F080521A64D4
:1032C0001B6C03F080530193019B0125284B1B6865
:1032D00013F4807F23D0A368012B34D0052B38D082
:1032E000214B1A6F22F001021A671A6F22F00402B2
:1032F0001A67A368002B3DD000F0DAFD06461A4B92
:103300001B6F13F0020F46D100F0D2FD801B41F27B
:1033100088339842F3D90320C6E00025D6E7144A43
:10332000136843F48073136000F0C2FD0646104B2F
:103330001B6813F4807FCED100F0BAFD801B0228F9
:10334000F5D90320B0E0084A136F43F00103136777
:10335000CFE7054B1A6F42F004021A671A6F42F06A
:1033600001021A67C5E700BF00380240000047426B
:103370000070004000F09CFD0646524B1B6F13F09E
:10338000020F08D000F094FD801B41F28833984270
:10339000F3D9032088E0EDB9A369002B00F0838006
:1033A000484A926802F00C02082A51D0022B17D02A
:1033B000454B00221A6600F07BFD0446414B1B681A
:1033C00013F0007F42D000F073FD001B0228F5D9F6
:1033D000032069E03B4A136C23F080531364DBE75E
:1033E000394B00221A6600F063FD0546354B1B6819
:1033F00013F0007F06D000F05BFD401B0228F5D9DA
:10340000032051E0E369226A1343626A43EA8213AC
:10341000A26A5208013A43EA0243E26A43EA0263BB
:10342000284A5360284B01221A6600F041FD0446E9
:10343000244B1B6813F0007F06D100F039FD001B00
:103440000228F5D903202FE000202DE000202BE0FA
:10345000012B2BD01B4B5B6803F48001E269914286
:1034600026D103F03F02216A8A4223D1616A47F6DE
:10347000C0721A40B2EB811F1ED103F44031A26A20
:103480005208013AB1EB024F18D103F07063E26ABF
:10349000B3EB026F14D1002006E001207047012039
:1034A00002E0012000E0002002B070BD0120FBE737
:1034B0000120F9E70120F7E70120F5E70120F3E714
:1034C0000120F1E7003802400000474208B5254BD3
:1034D0009B6803F00C03042B3FD0082B3FD1214BFA
:1034E0005A6802F03F025B6813F4800F12D01D4B44
:1034F0005968C1F388111C480023A1FB0001FEF7A5
:10350000E1FB184B5B68C3F3014301335B00B0FB85
:10351000F3F025E0134B5968C1F3881C4FEA4C11B6
:10352000B1EB0C006EEB0E0E4FEA8E1343EA906384
:103530008101091A63EB0E03DB0043EA5173C900F2
:1035400011EB0C0C43F10003990200234FEA8C208D
:1035500041EA9C51FEF7B6FBD3E7034800E003487D
:1035600008BD00BF0038024040787D010024F4000F
:10357000002800F09B8070B50D4604464F4B1B6839
:1035800003F007038B4208D2CBB24C4A1370136886
:1035900003F007038B4240F08B80236813F0020F87
:1035A00017D013F0040F04D0454A936843F4E05356
:1035B0009360236813F0080F04D0414A936843F4E2
:1035C000604393603E4A936823F0F003A1680B4385
:1035D0009360236813F0010F32D06368012B21D070
:1035E0009A1E012A25D9364A126812F0020F61D0BC
:1035F00033498A6822F0030213438B6000F058FCC1
:1036000006462F4B9B6803F00C036268B3EB820FF6
:1036100016D000F04DFC801B41F288339842F0D95F
:10362000032042E0264A126812F4003FE0D1012054
:103630003BE0234A126812F0007FD9D1012034E028
:103640001E4B1B6803F00703AB4207D9EAB21B4BC2
:103650001A701B6803F00703AB422DD1236813F0E7
:10366000040F06D0164A936823F4E053E1680B4335
:103670009360236813F0080F07D0114A936823F46E
:103680006043216943EAC1039360FFF71FFF0C4BBE
:103690009B68C3F303130B4AD35CD8400A4B1860F2
:1036A0000A4B186800F0B8FB002070BD012070477D
:1036B0000120FAE70120F8E70120F6E7003C02408C
:1036C000003802404C6E0008980100209401002050
:1036D000014B1868704700BF9801002008B5FFF73C
:1036E000F7FF044B9B68C3F38223034AD35CD840A3
:1036F00008BD00BF003802405C6E000808B5FFF747
:10370000E7FF044B9B68C3F34233034AD35CD840C2
:1037100008BD00BF003802405C6E000800230F2B7C
:1037200000F2D28070B582B060E085685E0003244C
:10373000B44025EA0405CC68B4402C438460456855
:1037400025EA02054C68C4F300129A402A434260FD
:103750005AE0DC08083450F8246003F007029500B2
:103760000F22AA4026EA020E0A69AA4042EA0E0285
:1037700040F824205CE0042200E0002202FA0EF26D
:103780002A430234514D45F82420514A94686FEA87
:103790000C0224EA0C054E6816F4801F01D04CEA96
:1037A00004054B4CA560E46802EA04054E6816F473
:1037B000001F01D04CEA0405454CE560646802EA4C
:1037C00004054E6816F4003F01D04CEA0405404C55
:1037D0006560246822404D6815F4803F01D04CEAB2
:1037E00004023B4C226001330F2B6BD801229A401C
:1037F0000C6804EA020C32EA0404F4D14C6804F0C8
:103800000304013C012C90D94A6802F00302032A08
:1038100009D0C4685D000322AA4024EA02048A6831
:10382000AA402243C2604A6802F00302022A90D0F2
:1038300004684FEA430E032202FA0EF224EA02045D
:103840004A6802F0030202FA0EF2224302604A685A
:1038500012F4403FC7D0002201921E4A546C44F437
:1038600080445464526C02F480420192019A9C0894
:10387000A51C164A52F8255003F003024FEA820EA7
:103880000F2202FA0EF225EA0205134A90423FF493
:1038900074AF02F5806290420ED002F580629042D1
:1038A0000CD002F5806290420AD002F5806290420C
:1038B0003FF461AF072261E701225FE702225DE783
:1038C00003225BE702B070BD704700BF00380140C3
:1038D000003C014000380240000002400AB1816112
:1038E00070470904816170477047000008B5054BB7
:1038F0005B69034200D108BD024B5861FFF7F4FF3A
:10390000F9E700BF003C014010B40368D9B2103998
:103910000C4AA2FB014212090B4CA25CC2655F2952
:1039200009D923F47F7323F0030304338365806D87
:103930005DF8044B704723F47F7323F00303836522
:10394000F5E700BFABAAAAAA446E0008836A8269A1
:1039500092B9012B0AD0022B02D00BB10020704784
:10396000C36A13F0807F28D100207047C36AB3F187
:10397000C07F24D000207047B2F5005F09D0022B31
:1039800025D9032B25D1C36A13F0807F23D10020D2
:103990007047032B03D8DFE803F01404140A002057
:1039A0007047C36A13F0807F0DD100207047C36A4F
:1039B000B3F1C07F09D0002070470120704701207B
:1039C0007047012070470120704701207047012097
:1039D00070470020704701207047000070B5044612
:1039E00000F066FA002C5BD00546022384F83530DF
:1039F000002384F834302268136823F00103136035
:103A000023681A6812F0010F0AD000F051FA431B24
:103A1000052BF5D920236365032084F8350070BD9C
:103A20001A68204810406168A2680A43E1680A43A6
:103A300021690A4361690A43A1690A43E1690A43AA
:103A4000216A0A430243616A04291ED01A6026686B
:103A5000756925F00705636A1D43042B07D1A36A26
:103A60001D43E36A1BB12046FFF770FF90B97561F3
:103A70002046FFF749FFE26D3F239340836000201B
:103A80006065012384F83530C9E7E16A206B0143A2
:103A90000A43DBE740236365012084F83500BEE775
:103AA0000120BCE73F8010F070B50446866D00F041
:103AB000FFF994F83530DBB2022B06D08023636522
:103AC000002384F83430012070BD05462268136855
:103AD00023F0160313602268536923F080035361B7
:103AE000236CE3B12268136823F008031360226893
:103AF000136823F00103136023681B6813F0010FA0
:103B000011D000F0D5F9431B052BF5D920236365AF
:103B1000032084F83500002384F83430D4E7A36C04
:103B2000002BDFD1E3E7E26D3F239340B360012335
:103B300084F83530002084F83400C5E790F835303B
:103B4000DBB2022B03D0802343650120704705239D
:103B500080F835300268136823F0010313600020F9
:103B600070470000F0B583B0044600230193724B08
:103B70001D68724BA3FB0535AD0A876D3E68C26DAB
:103B800008239340334210D003681A6812F0040FE0
:103B90000BD01A6822F004021A60C26D0823934009
:103BA000BB60436D43F001034365E26D0123934025
:103BB000334209D02268526912F0800F04D0BB60F2
:103BC000636D43F002036365E26D04239340334267
:103BD00009D02268126812F0020F04D0BB60636D36
:103BE00043F004036365E26D10239340334224D015
:103BF0002268126812F0080F1FD0BB6023681A6891
:103C000012F4802F0DD01B6813F4002F04D1236C05
:103C10009BB12046984710E0A36C73B120469847AB
:103C20000BE01A6812F4807F03D11A6822F00802B0
:103C30001A60236C0BB120469847E26D2023934015
:103C4000334255D02268126812F0100F50D0BB607A
:103C500094F83530DBB2052B0ED023681A6812F4C5
:103C6000802F33D01B6813F4002F2AD1636C002BF4
:103C70003ED0204698473BE02268136823F01603A5
:103C800013602268536923F080035361236CA3B14E
:103C90002268136823F008031360E26D3F2393400A
:103CA000BB60012384F83530002384F83430236D61
:103CB000002B3FD0204698473CE0A36C002BE7D177
:103CC000EBE7E36BA3B12046984711E01A6812F4C2
:103CD000807F09D11A6822F010021A60012384F84B
:103CE0003530002384F83430E36B0BB1204698471D
:103CF000636DFBB1636D13F0010F17D0052384F8DA
:103D000035302268136823F001031360019B0133EF
:103D10000193AB4204D823681B6813F0010FF5D15F
:103D2000012384F83530002384F83430E36C0BB180
:103D30002046984703B0F0BD98010020B5814E1B86
:103D4000074AD36823F4E0631B041B0C000200F451
:103D5000E060034343F0BF6343F40033D360704734
:103D600000ED00E000B5194BDB68C3F30223C3F19B
:103D7000070CBCF1040F28BF4FF0040C03F1040E34
:103D8000BEF1060F18D9033B4FF0FF3E0EFA0CFCB4
:103D900021EA0C0199400EFA03F322EA03031943C6
:103DA00000280BDB0901C9B200F1604000F5614059
:103DB00080F800135DF804FB0023E5E700F00F0036
:103DC0000901C9B2024B1954F4E700BF00ED00E04D
:103DD00014ED00E0002807DB00F01F02400901237A
:103DE0009340024A42F82030704700BF00E100E0F3
:103DF0000138B0F1807F0BD24FF0E0235861054AC3
:103E0000F02182F823100020986107221A61704780
:103E10000120704700ED00E010B504460E4B187805
:103E20004FF47A73B3FBF0F30C4A1068B0FBF3F075
:103E3000FFF7DEFF68B90F2C01D901200AE000224C
:103E400021464FF0FF30FFF78DFF054B1C6000202F
:103E500000E0012010BD00BF930100209801002068
:103E60009401002008B50B4B1A6842F400721A60E6
:103E70001A6842F480621A601A6842F480721A600A
:103E80000320FFF75DFF0F20FFF7C6FFFEF7B4FD2D
:103E9000002008BD003C0240034A1168034B1B7818
:103EA0000B441360704700BFC8030020930100203B
:103EB000014B1868704700BFC803002038B504469E
:103EC000FFF7F6FF0546B4F1FF3F02D0044B1B7825
:103ED0001C44FFF7EDFF401BA042FAD338BD00BFE2
:103EE00093010020026802F10C0353E8003F23F421
:103EF00090730C3242E800310029F3D1026802F1DC
:103F0000140353E8003F23F00103143242E8003168
:103F10000029F3D1036B012B05D0202380F8423018
:103F2000002303637047026802F10C0353E8003F6B
:103F300023F010030C3242E800310029F3D1ECE702
:103F400090F84130DBB2212B01D00220704783680A
:103F5000B3F5805F17D0036A5A1C02621A780368AF
:103F60005A60C38C9BB2013B9BB2C3844BB90268BD
:103F7000D36823F08003D3600268D36843F0400322
:103F8000D360002070470369002BE4D1036A1B88CB
:103F90000268C3F308035360036A02330362E0E775
:103FA00038B504460268136923F44053C1680B43D3
:103FB000136183680269134342691343C2691A4358
:103FC0000168CB6823F4164323F00C031343CB6042
:103FD0000268536923F4407381690B43536103689A
:103FE000314A934206D002F58062934202D0FFF735
:103FF00075FB01E0FFF782FBE369B3F5004F29D0C1
:104000000021031849411B1841F10001C90041EA90
:104010005371DB00181863684FEA83024FEA937309
:1040200041F10001FDF74EFE204DA5FB0032510984
:10403000642303FB11031B013233A5FB03235B093C
:1040400003F0F00202EB011203F00F0321681344A6
:104050008B6038BD0023021843EB0301121841F1B5
:104060000001C90041EA5271D200101841F100016B
:10407000626892185B41FDF725FE0C4DA5FB0032EE
:104080005109642303FB1103DB003233A5FB032337
:104090005B095A0002F4F87202EB011203F0070305
:1040A000216813448B60D4E7001001401F85EB5159
:1040B00060B310B5044690F8413013B3242384F85C
:1040C00041302268D36823F40053D3602046FFF7C1
:1040D00067FF2268136923F49043136122685369D0
:1040E00023F02A0353612268D36843F40053D3605A
:1040F00000206064202384F8413084F842306063FB
:1041000010BD80F84030FEF775FAD7E70120704700
:1041100008B50168CA6822F04002CA60202280F80F
:104120004120FEF785FC002008BD7047704708B5A8
:10413000806B0023C385C384FFF7F8FF08BD704779
:1041400090F84230DBB2222B69D18368B3F5805FEF
:104150004FD0826AB3F5805F04D0002B56D103693B
:10416000002B53D103685B681370836A0133836249
:10417000C38D9BB2013B9BB2C385002B51D100B5CF
:1041800083B00268D36823F02003D3600268D36849
:1041900023F48073D3600268536923F001035361F1
:1041A000202380F8423000234363036B012B33D17B
:1041B00000230363026802F10C0353E8003F23F07D
:1041C00010030C3242E800310029F3D103681A6869
:1041D00012F0100F06D0002201921A6801925B685B
:1041E0000193019B818DFFF7AAFF002003B05DF8CA
:1041F00004FB0269002AACD1826A03685B68C3F3DE
:1042000008031380836A02338362B1E703685B6843
:1042100003F07F031370A8E7FFF787FFE5E70220AD
:10422000704700207047000030B583B00446026834
:104230001368D068516913F00F0505D113F0200FF2
:1042400002D010F0200F19D12DB111F0010119D1B8
:1042500010F4907F16D1216B01297DD013F0800FCF
:1042600003D010F0800F40F0198113F0400F03D0FD
:1042700010F0400F40F0168103B030BD2046FFF72C
:104280005FFFF9E713F0010F06D010F4807F03D031
:10429000626C42F00102626413F0040F04D019B1A1
:1042A000626C42F00202626413F0020F04D019B192
:1042B000626C42F00402626413F0080F07D010F041
:1042C000200F00D119B1626C42F008026264626C86
:1042D000002AD1D013F0200F02D010F0200F29D1E6
:1042E00023685B6903F04003626C12F0080F00D191
:1042F00063B32046FFF7F6FD23685B6913F0400FB8
:1043000020D0226802F1140353E8003F23F0400359
:10431000143242E800310029F3D1E36B73B1634AF0
:104320001A65E06BFFF70AFC0028A5D0E06B036D6F
:104330009847A1E72046FFF703FFD1E72046FFF7A4
:10434000F5FE99E72046FFF7F1FE95E72046FFF7D7
:10435000EDFE002363648FE713F0100F3FF47EAF90
:1043600010F0100F3FF47AAF00230193136801930C
:1043700053680193019B536913F0400F52D0E26BD5
:1043800013685B689BB2002B3FF476AFA18D994216
:104390007FF672AFE385D369B3F5807F37D02268AB
:1043A00002F10C0353E8003F23F480730C3242E81F
:1043B00000310029F3D1226802F1140353E8003FD1
:1043C00023F00103143242E800310029F3D12268BE
:1043D00002F1140353E8003F23F04003143242E893
:1043E00000310029F3D1202384F8423000232363D5
:1043F000226802F10C0353E8003F23F010030C3253
:1044000042E800310029F3D1E06BFFF74DFB0223B6
:104410006363A18DE38D9BB2C91A89B22046FFF771
:104420008EFE29E7A18DE38D9BB2C91A89B2E38D77
:104430009BB2002B3FF420AF00293FF41DAF226850
:1044400002F10C0353E8003F23F490730C3242E86E
:1044500000300028F3D1226802F1140353E8003F32
:1044600023F00103143242E800300028F3D1202366
:1044700084F8423000232363226802F10C0353E8DE
:10448000003F23F010030C3242E800300028F3D143
:10449000022363632046FFF752FEEDE62046FFF756
:1044A0004FFDE9E62046FFF733FEE5E62F41000821
:1044B0002DE9F04383B0D0F8008001EBC10300EB9D
:1044C00083039A6A5B6A9A4254D807460C469B1A41
:1044D00001EBC10200EB8202D2699A4200D31A4674
:1044E00002F103094FEA990915E006F103094FEAC1
:1044F0009909BB7904EBC40507EB8505296A00938C
:10450000B3B2E2B2404601F03AF92B6A33442B626F
:10451000AB6A3344AB6208EB441303F510639B6949
:104520009BB24B4512D304EBC40207EB8202916AA3
:10453000536A99420AD24BB15B1A04EBC40207EBEF
:104540008202D6699E42D0D31E46CEE704EBC40059
:1045500007EB80077A6ABB6A9A420FD804F00F040F
:104560000123A340D8F8344824EA0304C8F83448A7
:10457000002000E0012003B0BDE8F0830020FAE74E
:1045800030B583B000287AD00446056890F8953499
:10459000C3B1032384F89534B5F1A04F17D0206838
:1045A00000F09EFE237C8DF80030231D0ECB20688A
:1045B00000F0D4FD70B1022384F89534012528461B
:1045C00003B030BD80F8943401F0E4FBE1E7002350
:1045D000A371E4E70021206801F0F2FA024608B96D
:1045E000034617E0022384F895340125E7E703EB3F
:1045F000C30104EB8101012048750B75CB850020B8
:104600000876C861086203EBC30104EB81014862CC
:104610000133DBB220799842E9D816E002EBC203FD
:1046200004EB8303002183F8551283F8542283F8A6
:104630005812C3F85C12C3F8601202EBC20304EB19
:104640008303C3F864120132D2B29042E6D8237CCD
:104650008DF80030231D0ECB206800F097FE054634
:1046600020B1022384F895340125A8E70023637460
:10467000012384F89534206801F05FFA9FE7012553
:104680009DE7036890F89424012A1AD010B50446D7
:10469000012280F89424DA6812F0400F02D0427BA5
:1046A000012A09D0206800F015FE206801F037FAD1
:1046B000002084F8940410BD9A6B42F480329A630F
:1046C000F0E702207047000070B504460D46006810
:1046D000066C00EB411303F530639A68A179012958
:1046E00011D038498E4256D03DB905EBC50304EBD5
:1046F0008303D3F86432002B5ED0E9B2204601F088
:104700009DFB002070BD12F0080F09D02E498E428B
:10471000F7D912F4004FF4D04FF400429A60F0E75A
:1047200012F0200F02D020229A60EAE712F0280F40
:10473000E7D125498E4206D912F4004F03D04FF439
:1047400000429A60DDE705EBC50204EB8202D2F875
:1047500074121B69C3F31203CB1AC2F868327DB915
:1047600005EBC50204EB8202D2F864226AB105EBC4
:10477000C50204EB8202D2F860120B44C2F8603228
:10478000E9B2204601F05AFBBBE704F29C4201214A
:1047900001F058FAF4E712F4004F03D04FF400424E
:1047A0009A60AEE712F0200F01D020229A60E9B2A1
:1047B000204601F043FBA4E704F29C42002101F0F3
:1047C00041FA9AE70A31544F0A30544F38B504463B
:1047D00003681D6C03EB4113D3F8081B0E4A954286
:1047E00007D903F5306311F4004F02D04FF40042B3
:1047F0009A60204601F01AFB074B9D4202D9A3792B
:10480000012B01D0002038BD04F29C420121206818
:1048100001F018FAF6E700BF0A30544F90F89434CC
:10482000012B0CD010B50446012380F89434417458
:10483000006801F064F9002084F8940410BD02209F
:10484000704738B505468C4611F0800F2BD101F02A
:104850000F0E0EEBCE04A40004F514740444211DC5
:104860000EEBCE0E00EB8E0E00208EF855020CF0F3
:104870000F0C81F800C0C2F30A028A600B714A78FB
:104880000AB1A1F81AC0022B1CD095F89434012B60
:104890001BD0012385F89434286800F052FE0020D4
:1048A00085F8940438BD01F00F0000EBC0018900C9
:1048B00010312944043100EBC00005EB80000124D5
:1048C0004475D4E700234B71DFE70220EAE710B517
:1048D00004460A4611F0800F20D101F00F0000EBD2
:1048E000C0039B0003F514732344191D00EBC000A3
:1048F00004EB8000002380F8553202F00F020A70AA
:1049000094F89434012B18D0012384F8943420684F
:1049100000F066FE002084F8940410BD01F00F0042
:1049200000EBC0039B0010332344191D00EBC000B3
:1049300004EB800001234375DFE70220EDE710B5AB
:10494000144601F00F0C0CEBCC01890001F5147139
:10495000014404310CEBCC0E00EB8E0ECEF860223D
:10496000CEF864320023CEF868328EF855328EF8D5
:1049700054C28279012A04D0006800F017FF002099
:1049800010BDCEF87042F7E710B5144601F00F0CD9
:104990000CEBCC0189001031014404310CEBCC0E3E
:1049A00000EB8E0ECEF82020CEF824300023CEF877
:1049B000283001238EF815308EF814C082799A427F
:1049C00004D0006800F0F2FE002010BDCEF83040A8
:1049D000F7E738B501F00F050279AA4238D304464B
:1049E0000B4611F0800F1FD101EBC101890001F5C9
:1049F00014710144043103EBC30300EB8303002271
:104A000083F8552201238B700D7094F89434012B98
:104A100020D0012384F89434206801F015F885B182
:104A2000002084F8940438BD05EBC50189001031DD
:104A30000144043105EBC50300EB830301225A75E1
:104A4000E0E704F29C42A179206801F0FBF8E7E777
:104A50000120E8E70220E6E701F00F0302799A421D
:104A600030D310B5044611F0800F1ED103EBC30103
:104A7000890001F514710144043103EBC30200EB1A
:104A80008202002082F8550200228A700B7094F88E
:104A90009434012B18D0012384F89434206801F059
:104AA00000F8002084F8940410BD03EBC3018900D2
:104AB00010310144043103EBC30200EB82020120F8
:104AC0005075E1E7012070470220EDE708B511F0CD
:104AD000800F0CD101F00F0101EBC101890001F53C
:104AE000147101440431006800F0EAFD08BD01F0D2
:104AF0000F0101EBC1018900103101440431F2E7DB
:104B00002DE9F04F83B004460568284601F054F8BB
:104B100010B103B0BDE8F08F0646206801F01BF825
:104B20000028F6D005F50067BB68C3F30D23C4F871
:104B3000D434206801F00FF810F0020F04D022687E
:104B4000536903F002035361206801F004F810F088
:104B5000100F13D02268936923F010039361D5F8E6
:104B6000208008F00F09C8F34343022B4BD0062BDB
:104B70006FD02268936943F010039361206800F0BE
:104B8000EAFF10F4002F76D1206800F0E4FF10F463
:104B9000802F40F0E080206800F0DDFF0028C0F2A8
:104BA0006181206800F0D7FF10F4006F09D0BB6866
:104BB00013F0010F40F06E812268536903F4006323
:104BC0005361206800F0C7FF10F4805F40F06681F9
:104BD000206800F0C0FF10F4005F40F0B38120684F
:104BE00000F0B9FF10F0080F40F0C481206800F019
:104BF000B2FF10F0800F00F0D781AB6923F0800383
:104C0000AB610126C0E147F6F07318EA030FB0D09C
:104C10004FEA181B4FEAC903019309EBC90A04EBD9
:104C20008A0AC8F30A12DAF86012284600F0E2FE97
:104C3000CBF30A0BDAF860325B44CAF86032019BAE
:104C40004B4404EB8303D3F868325B44CAF8683200
:104C50008FE7082204F29C41284600F0CBFEC8F3FF
:104C60000A1809EBC90204EB8202D2F86832434405
:104C7000C2F868327DE7206800F071FF8046B146D7
:104C800035E005EB49130122C3F8082B49462046BD
:104C9000FFF71AFD3CE005EB49130822C3F8082B87
:104CA00049462046FFF792FD35E009EBC90304EBC6
:104CB000830393F85732012B41D005EB49130222AD
:104CC000C3F8082B1AF0200F04D005EB491320225B
:104CD000C3F8082B1AF4005F05D005EB49134FF415
:104CE0000052C3F8082B09F101094FEA5808B8F13E
:104CF000000F3FF449AF18F0010FF4D05FFA89FBC1
:104D00005946206800F03BFF824610F0010FB8D1F1
:104D10001AF0080FBFD11AF0100F04D005EB491399
:104D20001022C3F8082B1AF0020FCBD06B6913F0D6
:104D3000800FBAD07B6843F480637B60B5E709EBF2
:104D4000C90304EB8303002283F857225946204607
:104D500001F0C2F8B1E7206800F009FF8046B146D3
:104D600025E05946204601F075F81AF0080F04D0E6
:104D700005EB49130822C3F808291AF0100F04D0D4
:104D800005EB49131022C3F808291AF0400F04D08C
:104D900005EB49134022C3F808291AF0020F40D14D
:104DA0001AF0800F59D109F101094FEA5808B8F1FA
:104DB000000F3FF4F0AE18F0010FF4D05FFA89FB5A
:104DC0005946206800F0E4FE824610F0010FCCD076
:104DD00009F00F03012101FA03F27B6B23EA0203BE
:104DE0007B6305EB4913C3F80819A3798B42B8D14B
:104DF00009EBC90304EB8303D9691A6A0A441A62EE
:104E0000B9F1000FADD109EBC90304EB83035B6A71
:104E1000002BA6D104F29C420121206800F012FF71
:104E20009FE74946284600F061FA09EBC90304EB05
:104E30008303DB7D012B05D005EB49130222C3F868
:104E40000829ADE709EBC90304EB83030022DA75F7
:104E50005946204601F046F8EEE749462046FFF75E
:104E600027FBA0E77B6823F001037B6094F8CC3438
:104E7000012B08D0204601F029F82268536903F07D
:104E8000004353618DE6002184F8CC14204600F0E5
:104E90003FF9F2E7204601F001F88DE67B6823F048
:104EA00001037B601021206800F020FA1AE005EB76
:104EB00046134FF67F31C3F80819D3F8002922F4BE
:104EC0000012C3F80029C3F8081BD3F8002B22F402
:104ED0000012C3F8002BD3F8002B42F00062C3F895
:104EE000002B01362379B342E1D8FB6943F001136B
:104EF000FB61E37BDBB1D7F8843043F00B03C7F8E9
:104F000084307B6C43F00B037B64D5F8003823F4CA
:104F1000FE63C5F8003804F29C42A179206800F0D5
:104F200091FE2268536903F48053536150E67B6914
:104F300043F4005343F02B037B613B6943F00B03C5
:104F40003B61E2E7206800F06CFE206800F0E8FAC0
:104F5000E0712668FEF7BCFB0146E279304600F0BE
:104F600047F9204600F087FF2268536903F4005395
:104F7000536134E6204600F078FF2268536903F05D
:104F80000803536132E601362379B3420CD906EBAC
:104F9000C60304EB830393F85732012BF3D1F1B22C
:104FA0002046FFF793FDEEE7206800F0D4FD10F4F3
:104FB000801F25D1206800F0CEFD10F4001F59D0CD
:104FC000012326E001362379B3421BD905EB4613B2
:104FD000D3F8002906EBC60304EB83031B7E012BE9
:104FE000F0D1002AEEDA06EBC60304EB83030122BC
:104FF000DA7566F07F01C9B22046FFF767FDE1E789
:105000000126E0E72268536903F480135361D1E776
:10501000013322799A4228D905EB4312D2F8001BBA
:1050200003EBC30204EB820292F85822012AEFD16B
:105030000029EDDA01F48031D4F8D42402F0010221
:105040009142E5D103EBC30204EB8202012182F815
:105050005712AA6942F08002AA616A6912F0800FB1
:10506000D6D17B6843F400737B602268536903F4F4
:1050700000135361206800F06EFD10F0804F10D1D6
:10508000206800F068FD10F0040F3FF442AD236883
:105090005D6815F0040F0DD1226853682B435360EF
:1050A00037E5204600F024FF2268536903F080436F
:1050B0005361E5E7204600F021FFEDE710B40468F6
:1050C000606A31B940EA0240A06200205DF8044BFA
:1050D00070478C46A36A00EB1340002308E003F1FD
:1050E000400104EB8101496800EB11400133DBB260
:1050F0000CF1FF318B42F2D340EA02400CF13F0148
:1051000004EB81014860E0E70368596200207047C2
:10511000704782B000230193019B01330193019BEF
:10512000B3F1706F15D80369002BF5DA00230193F2
:10513000036943F001030361019B01330193019B68
:10514000B3F1706F08D8036913F0010FF4D1002098
:1051500000E0032002B070470320FBE784B010B5E5
:10516000044603A880E80E009DF81130012B21D1E0
:10517000A36B23F48033A363E36823F4840323F055
:105180004003E360E36823F44013E3609DF81830C4
:10519000012B0AD02046FFF7BCFF9DF80E30012BF3
:1051A0001CD0BDE8104004B07047E36843F480139E
:1051B000E360EFE7E36843F04003E3602046FFF776
:1051C000A8FF9DF8153023B9A36B43F48033A36384
:1051D000E3E7A36B23F48033A363DEE7A36843F024
:1051E0000603A360A36843F02003A360D9E700008F
:1051F000022A0AD00921C26822F47052C260C36830
:1052000043EA8123C36000207047234B0B44234AA9
:1052100093422FD9224B0B44224A93422CD9A1F519
:105220007403A3F51053204A934227D9A1F1837345
:10523000A3F5E7431D4A934222D31D4B0B441D4A5D
:1052400093421FD91C4B0B441C4A93421CD31C4B4A
:105250000B441C4A934219D3A1F1B773A3F55853D9
:10526000194A934214D3194B0B44194A934211D251
:105270000721C0E70F21BEE70E21BCE70D21BAE7E9
:105280000C21B8E70B21B6E70A21B4E70921B2E700
:105290000821B0E70621AEE7405327FFFF340C009A
:1052A000401E1BFF3F420F007F4F120020D613000D
:1052B00060B6E5FE5FE3160000D3CEFE40771B002C
:1052C000C05BB3FEC091210020753800E05459FE48
:1052D000E09C4100836843F0010383600020704735
:1052E000836823F0010383600020704782B00023AD
:1052F0000193019B01330193019BB3F1706F15D8AA
:105300000369002BF5DA00230193890141F02001A4
:105310000161019B01330193019BB3F1706F08D8C8
:10532000036913F0200FF4D1002000E0032002B045
:1053300070470320FBE782B000230193019B0133F8
:105340000193019BB3F1706F13D80369002BF5DA59
:105350000023019310230361019B01330193019BFF
:10536000B3F1706F08D8036913F0100FF4D1002067
:1053700000E0032002B070470320FBE7D0F80038BC
:105380001943C0F8001800207047000084B0F8B539
:10539000044607A880E80E00002306E003F140025F
:1053A00004EB82020021516001330E2BF6D99DF8E7
:1053B000266006BBD4F8043843F00203C4F804386E
:1053C000A36B43F40013A363A36B23F40023A36331
:1053D000A36B23F48023A3630023C4F8003E9DF84D
:1053E0002130012B15D19DF81F306BB900212046CB
:1053F000FFF7C4FF11E0A36B23F40013A363A36BB7
:1054000043F40023A363E7E701212046FFF7B6FF3B
:1054100003E003212046FFF7B1FF10212046FFF7EC
:1054200065FF054600B101252046FFF784FF00B166
:10543000012504F5006C0023CCF81030CCF81430B2
:10544000CCF81C300AE0CBB94FF00060C2F800097C
:1054500000220A614FF67F328A6001339DF81C10EA
:10546000994210D904EB431202F51061D2F80009F9
:105470000028E8DB0020C2F80009E9E74FF090407F
:10548000C2F80009E4E700230AE0BBB14FF09047FF
:10549000C2F8007B002202614FF67F328260013346
:1054A000994210D904EB431202F53060D2F8007B28
:1054B000002FEADB0027C2F8007BEBE74FF0006724
:1054C000C2F8007BE6E7DCF8103023F48073CCF8F8
:1054D00010300023A3616FF0804363619DF81E309C
:1054E0001BB9A36943F01003A361A2690B4B1343DB
:1054F000A3619DF822301BB1A36943F00803A361A7
:10550000012E04D02846BDE8F84004B07047A369D6
:1055100043F0804343F00403A361F3E700383C8089
:10552000D0F8083813F0060307D0022B07D0062B5B
:1055300001D00F20704702207047002070470220E2
:10554000704710B591F800C04B78012B23D000F5BF
:10555000006ED0F81C380CF00F040122A24043EA80
:105560000243C0F81C3800EB4C10D0F8003B13F499
:10557000004F0ED1D0F8003B8A68C2F30A020979C5
:1055800042EA8142134343F0805343F40043C0F89E
:10559000003B002010BDD0F81C280CF00F0E03FAC1
:1055A0000EF39BB21343C0F81C3800EB4C10D0F83C
:1055B000003913F4004FECD1D0F800398A68C2F3F7
:1055C0000A02097942EA814242EA8C5C43EA0C030E
:1055D00043F0805343F40043C0F80039D9E700009A
:1055E00030B40B784A78012A26D000EB4313D3F865
:1055F000002B002A52DBD0F83C480A7802F00F0258
:105600004FF0010C0CFA02F224EA0242C0F83C28E6
:10561000D0F81C28097801F00F010CFA01FC22EAED
:105620000C42C0F81C28D3F8001B234A0A40C3F8D8
:10563000002B002030BC704700EB4313D3F8002947
:10564000002A1EDBD0F83C580A7802F00F02012431
:1056500004FA02F292B225EA0202C0F83C28D0F81D
:105660001C28097801F00F018C40A4B222EA04043E
:10567000C0F81C48D3F80019104A0A40C3F80029A2
:10568000D7E7D3F8002942F00062C3F80029D3F825
:10569000002942F08042C3F80029D3E7D3F8002B59
:1056A00042F00062C3F8002BD3F8002B42F0804296
:1056B000C3F8002B9FE700BF0078F3EF007833ECCE
:1056C00010B483B0024600230193487801280BD020
:1056D0000B7802EB4313D3F8000B00282DDB0020DE
:1056E00003B05DF8044B70470B7802EB4313D3F81B
:1056F0000049002C01DB0020F2E7D3F8004944F018
:105700000064C3F800490B7802EB4313D3F8004957
:1057100044F08044C3F80049019B01330193019C8C
:1057200042F210739C42DBD80B7802EB4313D3F8A0
:105730000039002BF0DB0020D2E7D3F8000B40F05B
:105740000060C3F8000B0B7802EB4313D3F8000B97
:1057500040F08040C3F8000B019B01330193019896
:1057600042F21073984208D80B7802EB4313D3F837
:10577000003B002BF0DB0020B2E70120B0E710B5C2
:105780009DF8084084B903334FEA930E4FF0000CA4
:1057900008E000EB023303F5805351F8044B1C6022
:1057A0000CF1010CF445F4D3002010BDF0B583B02A
:1057B0000C784B78012B2FD000EB441C0CF5306398
:1057C0001D69ED0CED041D611D6925F0FF5525F4E3
:1057D000C0151D61002C40F0CF800C690CB18C68A5
:1057E0000C618C680C621D69C4F312042C431C61AB
:1057F0001C6944F400241C61012A00F0E0800B794C
:10580000012B00F0E280DCF8003B43F00443CCF8CD
:10581000003B002003B0F0BD0B6983BB00EB4413D9
:10582000D3F8105925F0FF5525F4C015C3F81059C9
:10583000D3F8105945F40025C3F81059D3F810597E
:10584000ED0CED04C3F81059012A53D000EB4414B9
:10585000D4F8003943F00443C4F800390B79012B24
:1058600071D00B69002BD4D0D0F834380A7802F00C
:105870000F0101228A401343C0F83438C9E700EB16
:10588000441303F510631D69ED0CED041D611D69E2
:1058900025F0FF5525F4C0151D6184B90E698D688A
:1058A000AE4200D90D611D6945F400251D611D69D9
:1058B0000E69C6F3120C45EA0C051D61C4E70D69BB
:1058C0008E683544013DB5FBF6F51E69484F07EA81
:1058D000C54C46EA0C061E610E79012EE7D11E6901
:1058E00026F0C0461E611E696D0705F0C0453543B0
:1058F0001D61DCE7CB691BB100EB4412C2F814391F
:105900000B79012B08D000EB4410D0F8003943F09C
:105910000443C0F800397CE7D0F8083813F4807FDE
:1059200008D100EB4412D2F8003943F00053C2F81A
:105930000039E8E700EB4412D2F8003943F0805315
:10594000C2F80039DFE7D0F8083813F4807F0CD1B3
:10595000D4F8003943F00053C4F8003900920B8AA0
:105960000A78C968FFF70BFF53E7D4F8003943F012
:105970008053C4F80039F1E70C6954B91C698D688B
:10598000C5F312052C431C611C6944F400241C61FE
:1059900032E78D682C44013CB4FBF5F4A4B204FB5F
:1059A00005F50D621D69124E06EAC4442C431C61C4
:1059B0001C690D6AC5F312052C431C611CE7CA68FB
:1059C000002A3FF41CAF5A6119E7D0F8083813F4E5
:1059D000807F06D1DCF8003B43F00053CCF8003B5D
:1059E00011E7DCF8003B43F08053CCF8003B0AE7BA
:1059F0000000F81F00B583B0844608464FEA920EB7
:105A000002F00302002305E00CF58051096840F81C
:105A1000041B01337345F7D39AB10CF5805CDCF8B5
:105A2000003001934FF0000C5FFA8CF3D900019B1A
:105A3000CB4000F8013B0CF1010C013A92B2002A74
:105A4000F2D103B05DF804FB0B784A78012A14D038
:105A500000EB4310D0F8002B002A06DB2BB1D0F866
:105A6000003B23F08043C0F8003BD0F8003B43F4F8
:105A70000013C0F8003B0020704700EB4310D0F843
:105A80000029002A06DB2BB1D0F8003923F080432F
:105A9000C0F80039D0F8003943F40013C0F80039D9
:105AA000E9E70B784A78012A0ED000EB4310D0F8D2
:105AB000003B23F40013C0F8003B0B79023BDBB240
:105AC000012B15D90020704700EB4310D0F80039A6
:105AD00023F40013C0F800390B79023BDBB2012B31
